:100000000C942A000C943F000C943F000C943F0089
:100010000C943F000C943F000C943F000C943F0064
:100020000C943F000C943F000C943F000C943F0054
:100030000C943F000C9441000C943F000C943F0042
:100040000C943F000C943F000C943F000C943F0034
:100050000C943F0011241FBECFE5D8E0DEBFCDBF1A
:1000600010E0A0E6B0E0EEEDF1E002C005900D92E8
:10007000AC36B107D9F70E94AA000C94ED000C949D
:1000800000001F920F920FB60F9211242F933F93EF
:100090004F935F936F937F938F939F93AF93BF9390
:1000A000EF93FF938CB18234C1F018F4813431F0B6
:1000B00040C0833409F1843471F13BC0A8988AE0D0
:1000C0000E94C700A89A2FEF83ED90E32150804053
:1000D0009040E1F700C000002CC0A8988BE00E947F
:1000E000C700A89A2FEF83ED90E321508040904005
:1000F000E1F700C000001DC0A8988CE00E94C70076
:10010000A89A2FEF83ED90E3215080409040E1F7D3
:1001100000C000000EC0A8988DE00E94C700A89AF9
:100120002FEF83ED90E3215080409040E1F700C035
:100130000000FF91EF91BF91AF919F918F917F91BF
:100140006F915F914F913F912F910F900FBE0F9044
:100150001F9018952FEF83ED90E321508040904041
:10016000E1F700C000000E94CC0078948AE00E9471
:10017000C70080E690E00E94D7002FEF87EA91E663
:10018000215080409040E1F700C00000EFCF8FB9D0
:10019000779BFECF8FB1089587E689B988E18AB948
:1001A00086E880BD08955D9BFECF8CB908950F93BE
:1001B0001F93CF93FC018081882359F08F01C0E009
:1001C0000E94D300CF5FF801EC0FF11D80818111F7
:0E01D000F7CFCF911F910F910895F894FFCFB4
:0C01DE00534D4152545F484F4D45000006
:00000001FF
