:100000000C942A000C9434000C9434000C943400AA
:100010000C9434000C9434000C9434000C94340090
:100020000C9434000C9434000C9434000C94340080
:100030000C9434000C9434000C9434000C94340070
:100040000C9434000C9434000C9434000C94340060
:100050000C94340011241FBECFE5D8E0DEBFCDBF25
:100060000E9436000C9460000C9400000E9458001E
:10007000A09AA19A0E945C002FEF33ED90E32150EB
:1000800030409040E1F700C00000823459F018F48D
:10009000813431F0EFCF833439F0843439F0EACF52
:1000A000A89AE8CFA898E6CFA99AE4CFA998E2CF7A
:1000B000BE9ABC986E9A0895779BFECF8FB1089533
:0400C000F894FFCFE2
:00000001FF
