S01300004175746F7361724C696B652E73726563AD
S11300000C942A000C943F000C943F000C943F0085
S11300100C943F000C943F000C943F000C943F0060
S11300200C943F000C943F000C943F000C943F0050
S11300300C943F000C943F000C943F000C943F0040
S11300400C943F000C943F000C943F000C943F0030
S11300500C943F0011241FBECFE5D8E0DEBFCDBF16
S113006010E0A0E6B0E0ECE6F3E002C005900D92EB
S1130070A03AB107D9F70E9485010C94B4010C94FD
S11300800000982F9770869586958695813021F18A
S113009030F08230F1F1833009F458C008956130B2
S11300A069F44BB321E030E0B90102C0660F771F59
S11300B09A95E2F7CB01842B8BBB08954BB321E0D7
S11300C030E0B90102C0660F771F9A95E2F7CB01C1
S11300D0809584238BBB0895613069F448B321E093
S11300E030E0B90102C0660F771F9A95E2F7CB01A1
S11300F0842B88BB089548B321E030E0B90102C0E5
S1130100660F771F9A95E2F7CB018095842388BB0D
S11301100895613069F445B321E030E0B90102C0CB
S1130120660F771F9A95E2F7CB01842B85BB089560
S113013045B321E030E0B90102C0660F771F9A95FC
S1130140E2F7CB018095842385BB0895613069F47F
S113015042B321E030E0B90102C0660F771F9A95DF
S1130160E2F7CB01842B82BB089542B321E030E057
S1130170B90102C0660F771F9A95E2F7CB0180950B
S1130180842382BB0895813041F028F0823039F015
S1130190833039F008956BBB089568BB089565BB3F
S11301A0089562BB0895282F2770869586958695B5
S11301B0813079F028F08230A9F08330E1F024C056
S11301C089B390E002C0959587952A95E2F78170EE
S11301D0089586B390E002C0959587952A95E2F735
S11301E08170089583B390E002C0959587952A9510
S11301F0E2F78170089580B390E002C095958795E9
S11302002A95E2F78170089583E00895E0E6F0E02E
S113021080E041E050E0382F3770982F96959695FE
S1130220969520812130A1F5913089F028F0923003
S1130230C9F0933011F163C09AB3BA0102C0660FDA
S1130240771F3A95E2F79B01292B2ABB58C097B335
S1130250BA0102C0660F771F3A95E2F79B01292B7A
S113026027BB4DC094B3BA0102C0660F771F3A95FD
S1130270E2F79B01292B24BB42C091B3BA0102C00F
S1130280660F771F3A95E2F79B01292B21BB37C0F4
S1130290913091F028F09230D9F0933029F12FC0A9
S11302A02AB3BA0102C0660F771F3A95E2F7962F78
S11302B0909592239ABB23C027B3BA0102C0660F5C
S11302C0771F3A95E2F7962F9095922397BB17C024
S11302D024B3BA0102C0660F771F3A95E2F7962F4E
S11302E09095922394BB0BC021B3BA0102C0660F50
S11302F0771F3A95E2F7962F9095922391BB8F5FE3
S11303003296803209F087CF08950E94060161E099
S113031080E00E94410080E00E94D30081111FC050
S1130320C0E187EA91E60197F1F700C0000060E0C0
S11303308C2F0E9441008FE493EC0197F1F700C0E9
S1130340000061E08C2F0E9441008FE493EC019740
S1130350F1F700C00000CF5FC83119F7DCCF6FEFB1
S10F036082E00E94C300D7CFF894FFCFC6
S113036C0001010001000100010001000100010075
S113037C0100010001000100010001000100010065
S113038C010101010101010101010101010101014D
S113039C0100010001000100010001000100010045
S9030000FC
