S00F00004C4344544553542E7372656302
S11300000C942A000C943F000C943F000C943F0085
S11300100C943F000C943F000C943F000C943F0060
S11300200C943F000C943F000C943F000C943F0050
S11300300C943F000C943F000C943F000C943F0040
S11300400C943F000C943F000C943F000C943F0030
S11300500C943F0011241FBECFE5D8E0DEBFCDBF16
S113006010E0A0E6B0E0E2E1F2E002C005900D92FB
S1130070AC37B107D9F70E94DC000C9407010C944B
S113008000009BB39F70282F207F922B9BBBC198AD
S1130090C39A35E33A95F1F70000C398EFE3FFE123
S11300A03197F1F700C000002BB32F70F0E18F9F60
S11300B0C0011124822B8BBBC39A35E03A95F1F72A
S11300C00000C3988FE39FE10197F1F700C000009F
S11300D0089580EF8ABB8EE087BBC2982FEF89EF2B
S11300E090E0215080409040E1F700C0000083E39D
S11300F00E94410082E30E94410088E20E94410084
S11301008CE00E94410086E00E94410081E00E9450
S1130110410008959BB39F70282F207F922B9BBB97
S1130120C19AC39A35E33A95F1F70000C398EFE119
S1130130F3E03197F1F700C000002BB32F70F0E12A
S11301408F9FC0011124822B8BBBC39A35E33A9550
S1130150F1F70000C3988FE59DE60197F1F700C021
S113016000000895CF93DF93EC018881882331F058
S113017021960E948A0089918111FBCFDF91CF9152
S113018008950F931F93CF93DF93883080F48B01EE
S1130190880F880F880F805C0E944100E801085F87
S11301A01F4F89910E948A00C017D107D1F7DF91B0
S11301B0CF911F910F9108950E94690088E690E005
S11301C00E94B2002FEF89E698E1215080409040D0
S11301D0E1F700C0000080EC0E94410084E790E059
S11301E00E94B2002FEF89E698E1215080409040B0
S11301F0E1F700C0000060E670E080E00E94C1000A
S11302008FEC0E94410080E00E948A00FFCFF894A6
S1050210FFCF1A
S113021200000A00110E00004D6F68616D656420D4
S10F0222416D7200416D6974513600009A
S9030000FC
